{
  "address": "0x57aAe2240a114106108b93Af7a8F2664E162437E",
  "abi": [
    {
      "inputs": [
        {
          "internalType": "contract DataLayer",
          "name": "_dataLayer",
          "type": "address"
        }
      ],
      "stateMutability": "nonpayable",
      "type": "constructor"
    },
    {
      "inputs": [
        {
          "internalType": "int256[][]",
          "name": "X",
          "type": "int256[][]"
        },
        {
          "internalType": "int256[]",
          "name": "y",
          "type": "int256[]"
        },
        {
          "internalType": "int256",
          "name": "learningRate",
          "type": "int256"
        },
        {
          "internalType": "uint256",
          "name": "iterations",
          "type": "uint256"
        },
        {
          "internalType": "int256",
          "name": "bias",
          "type": "int256"
        }
      ],
      "name": "fit",
      "outputs": [
        {
          "internalType": "int256[]",
          "name": "",
          "type": "int256[]"
        }
      ],
      "stateMutability": "pure",
      "type": "function"
    },
    {
      "inputs": [
        {
          "internalType": "bytes32",
          "name": "schemaName",
          "type": "bytes32"
        },
        {
          "internalType": "uint256[]",
          "name": "trainingColIndices",
          "type": "uint256[]"
        },
        {
          "internalType": "uint256",
          "name": "labelColIndex",
          "type": "uint256"
        },
        {
          "internalType": "int256[][]",
          "name": "testData",
          "type": "int256[][]"
        },
        {
          "internalType": "int256",
          "name": "learningRate",
          "type": "int256"
        },
        {
          "internalType": "uint256",
          "name": "iterations",
          "type": "uint256"
        },
        {
          "internalType": "int256",
          "name": "bias",
          "type": "int256"
        }
      ],
      "name": "getLinearRegression",
      "outputs": [
        {
          "internalType": "int256[]",
          "name": "",
          "type": "int256[]"
        }
      ],
      "stateMutability": "view",
      "type": "function"
    },
    {
      "inputs": [
        {
          "internalType": "int256[][]",
          "name": "analyticsData",
          "type": "int256[][]"
        },
        {
          "internalType": "int256[]",
          "name": "labels",
          "type": "int256[]"
        },
        {
          "internalType": "int256[][]",
          "name": "testData",
          "type": "int256[][]"
        },
        {
          "internalType": "int256",
          "name": "learningRate",
          "type": "int256"
        },
        {
          "internalType": "uint256",
          "name": "iterations",
          "type": "uint256"
        },
        {
          "internalType": "int256",
          "name": "bias",
          "type": "int256"
        }
      ],
      "name": "getLinearRegressionOffChainData",
      "outputs": [
        {
          "internalType": "int256[]",
          "name": "",
          "type": "int256[]"
        }
      ],
      "stateMutability": "pure",
      "type": "function"
    },
    {
      "inputs": [
        {
          "internalType": "int256[][]",
          "name": "X",
          "type": "int256[][]"
        },
        {
          "internalType": "int256",
          "name": "bias",
          "type": "int256"
        },
        {
          "internalType": "int256[]",
          "name": "weights",
          "type": "int256[]"
        }
      ],
      "name": "predict",
      "outputs": [
        {
          "internalType": "int256[]",
          "name": "",
          "type": "int256[]"
        }
      ],
      "stateMutability": "pure",
      "type": "function"
    }
  ],
  "transactionHash": "0x85fa7184c066b695271724fa1b101e9a6fdea08f291cbbc1e450d092d582e438",
  "args": [
    "0x0af59d8b00c47F5b41ee510E1c3036AA773297F3"
  ],
  "numDeployments": 1,
  "solcInputHash": "0fafca276197fdb64a4997b11c3622c9",
  "bytecode": "0x60803461007457601f610bd538819003918201601f19168301916001600160401b038311848410176100795780849260209460405283398101031261007457516001600160a01b0381169081900361007457600080546001600160a01b031916919091179055604051610b4590816100908239f35b600080fd5b634e487b7160e01b600052604160045260246000fdfe60806040815260c06040526004908136101561001a57600080fd5b600091823560e01c806330eba3ba146101b6578063ac9126a31461015b578063c9b76701146100ce5763e689266d1461005257600080fd5b346100ca5760a03660031901126100ca5767ffffffffffffffff81358181116100c65761008290369084016105da565b936024359182116100c35750926100a26100b3926100bf95369101610577565b6084359160643591604435916107c6565b9051519182918261065b565b0390f35b80fd5b8480fd5b8280fd5b5091346100c35760c03660031901126100c35767ffffffffffffffff9280358481116100ca5761010190369083016105da565b93602435818111610157576101199036908401610577565b926044359182116100c357509161015161013d6100bf96936100b3953691016105da565b9260a43592839160843591606435916107c6565b91610a79565b8380fd5b50346100ca5760603660031901126100ca5767ffffffffffffffff81358181116100c65761018c90369084016105da565b936044359182116100c35750926101ac6100b3926100bf95369101610577565b9060243590610a79565b50346100ca5760e03660031901126100ca5767ffffffffffffffff906024358281116100c657366023820112156100c65780820135946101f58661055f565b926102038651519485610527565b86845260a092602084526020850160246005998a1b830101913683116100c657602401905b828210610517575050506064358581116100ca5761024990369083016105da565b9460c435978360018060a01b038154169360248a515180968193630596815760e21b83528035908301525afa92831561050c578493610402575b505050928351926102938461055f565b936102a18851519586610527565b8085526102b0601f199161055f565b0190835b8281106103ef575050506102c88451610696565b936102d38251610696565b6102dc856106c8565b526102e6846106c8565b5060019260443584805b610311575b6100bf8a6100b38b8e610151818e8e60a43591608435916107c6565b83518110156103ea57908493929161032a879651610696565b610334828a6106eb565b5261033f81896106eb565b5061035d6103578361035184886106eb565b516106eb565b51610724565b610367828b6106eb565b5282865b610384575b5061037a906106ff565b90919293946102f0565b8886979293949596518210156103dd57906103d1916103cb82610351876103c56103578e6103be8f6103b78689926106eb565b51926106eb565b51906106eb565b946106eb565b526106ff565b8196959493929161036b565b5095949392919095610370565b6102f5565b81516060878301909101528151016102b4565b909192503d8085833e6104158183610527565b8101908551818303126100c65780519084821161050857019181601f840112156100c6578251916104458361055f565b946104538b51519687610527565b8386528751948580880195851b82010195838711610504578101945b8686106104855750505050505050388080610283565b855183811161050057820184603f82011215610500578a51810151908e6104ab8361055f565b926104b98251519485610527565b8084528d518401915180918a1b840101928884116104fc5701905b8282106104ec5750505081528951958601950161046f565b815181528d5191820191016104d4565b8d80fd5b8980fd5b8880fd5b8580fd5b8851513d86823e3d90fd5b8135815285519182019101610228565b90601f8019910116810190811067ffffffffffffffff82111761054957604052565b634e487b7160e01b600052604160045260246000fd5b67ffffffffffffffff81116105495760051b60200190565b81601f820112156105d55780359161058e8361055f565b9261059c6040519485610527565b808452602092838086019260051b8201019283116105d5578301905b8282106105c6575050505090565b813581529083019083016105b8565b600080fd5b9080601f830112156105d5578135906105f28261055f565b926106006040519485610527565b828452602092838086019160051b830101928084116105d557848301915b84831061062e5750505050505090565b823567ffffffffffffffff81116105d557869161065084848094890101610577565b81520192019161061e565b6020908160408183019282815285518094520193019160005b828110610682575050505090565b835185529381019392810192600101610674565b906106a08261055f565b6106ad6040519182610527565b82815280926106be601f199161055f565b0190602036910137565b8051156106d55760200190565b634e487b7160e01b600052603260045260246000fd5b80518210156106d55760209160051b010190565b600019811461070e5760010190565b634e487b7160e01b600052601160045260246000fd5b90633b9aca009182810292818405149015171561070e57565b818102929160008212600160ff1b82141661070e57818405149015171561070e57565b811561077b57600160ff1b811460001983141661070e570590565b634e487b7160e01b600052601260045260246000fd5b9190916000838201938412911290801582169115161761070e57565b8181039291600013801582851316918412161761070e57565b90928151845103610a18576107e76107e0839695966106c8565b5151610696565b9460005b8281106107fb5750505050505090565b6108088498939851610696565b956108156107e0866106c8565b6000936001955b87518710156108ae57878b8b9c9d869c999a9b9c9389945b61083d856106c8565b515186101561088a5761087e61088491633b9aca008f610877906108708b610351610868828d6106eb565b51938d6106eb565b519061073d565b0590610791565b956106ff565b94610834565b925094996108a194508b93509a6103cb919b6106eb565b95909a999897969a61081c565b979198929499909395509995996001965b8b5188101561098857908392916108ee6108dc8a8f9998976106eb565b516108e78b886106eb565b51906107ad565b9960005b6108fb896106c8565b515181101561095957808d6103cb828f8f8e61093861093161094e9461092b6109549b61035161093e97876106eb565b5161073d565b9151610724565b90610760565b61094883866106eb565b51610791565b926106eb565b6108f2565b50989b610974610980939b61097a9395969798995190610760565b90610791565b9a6106ff565b9697906108bf565b93919a99949596509796915060005b6109a08a6106c8565b51518110156109e357806109d4633b9aca006109c38e6108706109de968e6106eb565b056109ce838d6106eb565b516107ad565b6103cb828c6106eb565b610997565b5096979492610a0a9199965093633b9aca00610a03610a1094968961073d565b05906107ad565b916106ff565b9490946107eb565b60405162461bcd60e51b815260206004820152603360248201527f4665617475726520616e64206c6162656c20617272617973206d7573742068616044820152723b32903a34329039b0b6b2903632b733ba341760691b6064820152608490fd5b9190825192610a8784610696565b93600090815b818310610a9d5750505050505090565b849597919293949281935b610ab1876106c8565b5151851015610af057610ae4610aea91633b9aca006108778a6108708f6103518d610add8e80946106eb565b51946106eb565b946106ff565b93610aa8565b610b07929695919450989692986103cb828a6106eb565b919093610a8d56fea264697066735822122011f3dd8fb7c49a46bc8f765ceb5dc2129961de7ab099cad99a187919a8c6517f64736f6c63430008110033",
  "devdoc": {
    "kind": "dev",
    "methods": {
      "fit(int256[][],int256[],int256,uint256,int256)": {
        "params": {
          "X": "- The training features.",
          "y": "- The training labels."
        }
      },
      "predict(int256[][],int256,int256[])": {
        "params": {
          "X": "- The input features."
        }
      }
    },
    "version": 1
  },
  "userdoc": {
    "kind": "user",
    "methods": {
      "fit(int256[][],int256[],int256,uint256,int256)": {
        "notice": "Fits the linear regression model to the training data"
      },
      "predict(int256[][],int256,int256[])": {
        "notice": "Predicts the labels for the given input data"
      }
    },
    "version": 1
  },
  "storageLayout": {
    "storage": [
      {
        "astId": 2595,
        "contract": "contracts/LinearRegression.sol:LinearRegression",
        "label": "dataLayer",
        "offset": 0,
        "slot": "0",
        "type": "t_contract(DataLayer)1579"
      }
    ],
    "types": {
      "t_contract(DataLayer)1579": {
        "encoding": "inplace",
        "label": "contract DataLayer",
        "numberOfBytes": "20"
      }
    }
  }
}