{
  "address": "0xefEB79d2016Ddc9c18c60df1923B7500C262c71F",
  "abi": [
    {
      "inputs": [
        {
          "internalType": "contract DataLayer",
          "name": "_dataLayer",
          "type": "address"
        }
      ],
      "stateMutability": "nonpayable",
      "type": "constructor"
    },
    {
      "inputs": [
        {
          "internalType": "int256[][]",
          "name": "X",
          "type": "int256[][]"
        },
        {
          "internalType": "int256[]",
          "name": "y",
          "type": "int256[]"
        },
        {
          "internalType": "int256",
          "name": "learningRate",
          "type": "int256"
        },
        {
          "internalType": "uint256",
          "name": "iterations",
          "type": "uint256"
        },
        {
          "internalType": "int256",
          "name": "bias",
          "type": "int256"
        }
      ],
      "name": "fit",
      "outputs": [
        {
          "internalType": "int256[]",
          "name": "",
          "type": "int256[]"
        }
      ],
      "stateMutability": "pure",
      "type": "function"
    },
    {
      "inputs": [
        {
          "internalType": "bytes32",
          "name": "schemaName",
          "type": "bytes32"
        },
        {
          "internalType": "uint256[]",
          "name": "trainingColIndices",
          "type": "uint256[]"
        },
        {
          "internalType": "uint256",
          "name": "labelColIndex",
          "type": "uint256"
        },
        {
          "internalType": "int256[][]",
          "name": "testData",
          "type": "int256[][]"
        },
        {
          "internalType": "int256",
          "name": "learningRate",
          "type": "int256"
        },
        {
          "internalType": "uint256",
          "name": "iterations",
          "type": "uint256"
        },
        {
          "internalType": "int256",
          "name": "bias",
          "type": "int256"
        }
      ],
      "name": "getLogisticRegression",
      "outputs": [
        {
          "internalType": "int256[]",
          "name": "",
          "type": "int256[]"
        }
      ],
      "stateMutability": "view",
      "type": "function"
    },
    {
      "inputs": [
        {
          "internalType": "int256[][]",
          "name": "analyticsData",
          "type": "int256[][]"
        },
        {
          "internalType": "int256[]",
          "name": "labels",
          "type": "int256[]"
        },
        {
          "internalType": "int256[][]",
          "name": "testData",
          "type": "int256[][]"
        },
        {
          "internalType": "int256",
          "name": "learningRate",
          "type": "int256"
        },
        {
          "internalType": "uint256",
          "name": "iterations",
          "type": "uint256"
        },
        {
          "internalType": "int256",
          "name": "bias",
          "type": "int256"
        }
      ],
      "name": "getLogisticRegressionOffChainData",
      "outputs": [
        {
          "internalType": "int256[]",
          "name": "",
          "type": "int256[]"
        }
      ],
      "stateMutability": "pure",
      "type": "function"
    },
    {
      "inputs": [
        {
          "internalType": "int256[][]",
          "name": "X",
          "type": "int256[][]"
        },
        {
          "internalType": "int256[]",
          "name": "weights",
          "type": "int256[]"
        },
        {
          "internalType": "int256",
          "name": "bias",
          "type": "int256"
        }
      ],
      "name": "predict",
      "outputs": [
        {
          "internalType": "int256[]",
          "name": "",
          "type": "int256[]"
        }
      ],
      "stateMutability": "pure",
      "type": "function"
    }
  ],
  "transactionHash": "0x3a23cc24790c0395881777b5e91b2f3dd4f71d178ed6c8c72b7426930697f14b",
  "args": [
    "0x0af59d8b00c47F5b41ee510E1c3036AA773297F3"
  ],
  "numDeployments": 1,
  "solcInputHash": "0fafca276197fdb64a4997b11c3622c9",
  "bytecode": "0x60803461007457601f610c9038819003918201601f19168301916001600160401b038311848410176100795780849260209460405283398101031261007457516001600160a01b0381169081900361007457600080546001600160a01b031916919091179055604051610c0090816100908239f35b600080fd5b634e487b7160e01b600052604160045260246000fdfe60a06040815260c06040526004908136101561001a57600080fd5b600091823560e01c80631bb0da8a1461049f578063348920fa14610445578063a9a56292146100cd5763e689266d1461005257600080fd5b346100c957816003193601126100c95767ffffffffffffffff81358181116100c55761008190369084016105d4565b936024359182116100c25750926100a16100b2926100be95369101610571565b6084359160643591604435916107c0565b90515191829182610655565b0390f35b80fd5b8480fd5b8280fd5b5091346100c25760e03660031901126100c25767ffffffffffffffff926024358481116100c957366023820112156100c957808201359261010d84610559565b9261011b8651519485610521565b84845260809260208452602085016024600597881b830101913683116100c557602401905b828210610435575050506064358781116100c95761016190369083016105d4565b9660c435958360018060a01b038154169360248a515180968193630596815760e21b83528035908301525afa92831561042a578493610320575b505050928351926101ab84610559565b936101b98851519586610521565b8085526101c8601f1991610559565b0190835b82811061030d575050506101e08451610690565b936101eb8251610690565b6101f4856106c2565b526101fe846106c2565b5060019260443584805b61022f575b6100be8a6100b28b8e610229828e8e60a43591608435916107c0565b90610a88565b8351811015610308579084939291610248879651610690565b610252828a6106e5565b5261025d81896106e5565b5061027b6102758361026f84886106e5565b516106e5565b5161071e565b610285828b6106e5565b5282865b6102a2575b50610298906106f9565b9091929394610208565b8886979293949596518210156102fb57906102ef916102e98261026f876102e36102758e6102dc8f6102d58689926106e5565b51926106e5565b51906106e5565b946106e5565b526106f9565b81969594939291610289565b509594939291909561028e565b61020d565b81516060878301909101528151016101cc565b909192503d8085833e6103338183610521565b8101908551818303126100c55780519084821161042657019181601f840112156100c55782519161036383610559565b946103718b51519687610521565b8386528751948580880195851b82010195838711610422578101945b8686106103a3575050505050505038808061019b565b855183811161041e57820184603f8201121561041e578a51810151908e6103c983610559565b926103d78251519485610521565b8084528d518401915180918a1b8401019288841161041a5701905b82821061040a5750505081528951958601950161038d565b815181528d5191820191016103f2565b8d80fd5b8980fd5b8880fd5b8580fd5b8851513d86823e3d90fd5b8135815285519182019101610140565b50346100c95760603660031901126100c95767ffffffffffffffff81358181116100c55761047690369084016105d4565b936024359182116100c25750926104966100b2926100be95369101610571565b60443591610a88565b50346100c95760c03660031901126100c95767ffffffffffffffff9080358281116100c5576104d190369083016105d4565b91602435818111610426576104e99036908401610571565b946044359182116100c257509161022961050d6100be96936100b2953691016105d4565b9160a43593849160843591606435916107c0565b90601f8019910116810190811067ffffffffffffffff82111761054357604052565b634e487b7160e01b600052604160045260246000fd5b67ffffffffffffffff81116105435760051b60200190565b81601f820112156105cf5780359161058883610559565b926105966040519485610521565b808452602092838086019260051b8201019283116105cf578301905b8282106105c0575050505090565b813581529083019083016105b2565b600080fd5b9080601f830112156105cf578135906105ec82610559565b926105fa6040519485610521565b828452602092838086019160051b830101928084116105cf57848301915b8483106106285750505050505090565b823567ffffffffffffffff81116105cf57869161064a84848094890101610571565b815201920191610618565b6020908160408183019282815285518094520193019160005b82811061067c575050505090565b83518552938101939281019260010161066e565b9061069a82610559565b6106a76040519182610521565b82815280926106b8601f1991610559565b0190602036910137565b8051156106cf5760200190565b634e487b7160e01b600052603260045260246000fd5b80518210156106cf5760209160051b010190565b60001981146107085760010190565b634e487b7160e01b600052601160045260246000fd5b90633b9aca009182810292818405149015171561070857565b818102929160008212600160ff1b82141661070857818405149015171561070857565b811561077557600160ff1b8114600019831416610708570590565b634e487b7160e01b600052601260045260246000fd5b9190916000838201938412911290801582169115161761070857565b8181039291600013801582851316918412161761070857565b93929190938051855103610a275790936107e36107dc836106c2565b5151610690565b946000935b8085106107f85750505050505090565b6108088495979498969851610690565b976108138651610690565b976108206107dc886106c2565b6000936001995b89518b10156108d2578c908561083d8d846106e5565b52865b8d61084a8d6106c2565b51518210156108a75750808d6102e961089b8f8f633b9aca00916108838761026f8861087c6108a29c61088a976106e5565b51946106e5565b5190610737565b0561089584896106e5565b5161078b565b91866106e5565b610840565b90506102e98d6108c681949f6108c0906108cc976106e5565b51610b40565b926106e5565b99610827565b9b5097969098509891909394929860019a5b87518c101561097f5761090d8c6109066108fe82886106e5565b5191886106e5565b51906107a7565b9860005b61091a8a6106c2565b515181101561095f57808c8f826108c68f8f633b9aca009161094961095a9961026f6102e99861094f956106e5565b51610737565b0561089583866106e5565b610911565b509b9a6109779192996109719161078b565b9a6106f9565b9a97906108e4565b9250979495969098995060005b610995886106c2565b51518110156109eb57806109dc6109cc6109bc6109b56109e6958b6106e5565b518b610737565b6109c68c5161071e565b9061075a565b6109d6838d6106e5565b516107a7565b6102e9828c6106e5565b61098c565b5095935097610a1d91929697610a11610a07610a179388610737565b6109c6875161071e565b906107a7565b956106f9565b93929091926107e8565b60405162461bcd60e51b815260206004820152603360248201527f4665617475726520616e64206c6162656c20617272617973206d7573742068616044820152723b32903a34329039b0b6b2903632b733ba341760691b6064820152608490fd5b9190918051610a9681610690565b936000915b808310610aaa57505050505090565b909192939586916000925b610abe876106c2565b5151841015610afc57610af0610af691633b9aca00610ae98a6108838961026f8d61087c838f6106e5565b059061078b565b936106f9565b92610ab5565b610b3292989350610b16631dcd6500919796929597610b40565b13600090600014610b3b5750633b9aca005b6102e982896106e5565b91939093610a9b565b610b28565b633b9aca008060019283925b601e8412610b7d5750509050610b618161071e565b9181633b9aca00019182121661070857610b7a9161075a565b90565b610b96610b8d83610b9d93610737565b6109c68661071e565b809361078b565b926001600160ff1b038114610bb55784019291610b4c565b60246000634e487b7160e01b81526011600452fdfea2646970667358221220e8a552a5df9ba4e5e82614da435a9a63edc9c7d2afd756b5a0f39e65e81e886c64736f6c63430008110033",
  "devdoc": {
    "kind": "dev",
    "methods": {
      "fit(int256[][],int256[],int256,uint256,int256)": {
        "params": {
          "X": "- The training features.",
          "y": "- The training labels."
        }
      },
      "predict(int256[][],int256[],int256)": {
        "params": {
          "X": "- The input features."
        }
      }
    },
    "version": 1
  },
  "userdoc": {
    "kind": "user",
    "methods": {
      "fit(int256[][],int256[],int256,uint256,int256)": {
        "notice": "Fits the logistic regression model to the training data"
      },
      "predict(int256[][],int256[],int256)": {
        "notice": "Predicts the labels for the given input data"
      }
    },
    "version": 1
  },
  "storageLayout": {
    "storage": [
      {
        "astId": 3170,
        "contract": "contracts/LogisticRegression.sol:LogisticRegression",
        "label": "dataLayer",
        "offset": 0,
        "slot": "0",
        "type": "t_contract(DataLayer)1579"
      }
    ],
    "types": {
      "t_contract(DataLayer)1579": {
        "encoding": "inplace",
        "label": "contract DataLayer",
        "numberOfBytes": "20"
      }
    }
  }
}